:020000040800F2
:10000000F0050020050100084B1300084912000804
:10001000491300081302000811170008000000002F
:100020000000000000000000000000004F13000866
:100030004B020008000000004D1300085113000897
:100040001F0100081F0100081F0100081F01000810
:100050001F0100081F0100081F0100081F01000800
:100060001F0100081F0100081F0100081F010008F0
:100070001F0100081F0100081F01000815020008E9
:100080001F0100081F0100081F0100081F010008D0
:100090001F0100081F0100081F0100081F010008C0
:1000A0001F0100081F0100081F0100081F010008B0
:1000B0001F0100081F0100081F0100081F010008A0
:1000C0001F0100081F0100081F0100081F01000890
:1000D0001F010008F91600081F0100081F01000891
:1000E0001F0100081F0100081F010008DFF810D0E1
:1000F00000F06EF800480047BD1C0008AFF3008018
:10010000F00500200648804706480047FEE7FEE766
:10011000FEE7FEE7FEE7FEE7FEE7FEE7FEE7FEE7B7
:10012000A3130008ED000008202A04DB203A21FA7E
:1001300002F00021704721FA02F3D040C2F1200200
:100140009140084319467047D2B201E000F8012BF4
:10015000491EFBD270470022F6E710B513460A4647
:1001600004461946FFF7F0FF204610BD2DE9F05F69
:100170000546002092469B46884606468146402416
:100180001BE02846414647462246FFF7CDFF53462F
:100190005A46C01A914110D311461846224600F023
:1001A00029F82D1A67EB01084F462246012000214D
:1001B00000F020F817EB00094E41201EA4F10104C5
:1001C000DFDC484631462A464346BDE8F09F000042
:1001D000064C074D06E0E06840F0010394E8070094
:1001E00098471034AC42F6D3FFF784FFC4220008CE
:1001F000E4220008202A04DB203A00FA02F1002061
:1002000070479140C2F1200320FA03F31943904054
:100210007047FEE7014800F089B80000A8010020FF
:1002200030B590F840500124AC40C56B6C60046858
:1002300063604368102B036803D099600068C26054
:1002400030BD9A600068C16030BD7047704710B51E
:1002500090F821100022022905D00421816380F842
:100260002020012010BD01680B6823F00E030B60F5
:1002700001680B6823F001030B6090F84030C46BF9
:10028000012101FA03F3636080F8211080F8202037
:10029000104610BD10B590F821100024022903D09B
:1002A0000421816301243DE001680A6822F00E0206
:1002B0000A6001680A6822F001020A601A4A0168AD
:1002C000914201D1012121E0174A1432914201D11A
:1002D00010211BE0144A2832914201D1891515E002
:1002E000114A3C32914201D189140FE00E4A50323A
:1002F000914202D14FF4803108E00B4A64329142BE
:1003000002D14FF4801101E04FF08071064A083AA3
:100310005160012180F82110002180F82010416BEC
:1003200001B18847204610BD080002402DE9F05F6A
:10033000C16B0C6801680B68D0F840C0042202FA57
:100340000CF2494DDFF824A1494E4A4FDFF828B19D
:10035000DFF828E122422CD05A072AD50A689206F3
:1003600003D40A6822F004020A600168A94201D19C
:10037000042219E0514501D1402215E0B14202D1D9
:100380004FF4806210E0B94202D14FF480420BE09A
:10039000594502D14FF4802206E0714502D14FF455
:1003A000800201E04FF080622F4908394A60C16A3B
:1003B0003BE04FF0020808FA0CF818EA040F4FF07F
:1003C00000094FF0010235D05FEA837832D50B681F
:1003D0009B0605D40B6823F00A030B6080F82120EC
:1003E0000168A94201D1022219E0514501D1202220
:1003F00015E0B14202D14FF4007210E0B94202D1CF
:100400004FF400520BE0594502D14FF4003206E0A0
:10041000714502D14FF4001201E04FF00072124911
:1004200008394A6080F82090816A00291AD0BDE816
:10043000F05F0847082505FA0CF5254212D01B0786
:1004400010D50B6823F00E030B6090F84010C36BBF
:1004500002FA01F15960826380F8212080F820902F
:10046000016BE2E7BDE8F09F080002401C0002407B
:100470003000024044000240580002406C0002403C
:1004800030B528B308C8134914221944B1FBF2F15E
:100490008900C16310498163022141771A6843F6DC
:1004A000F0718A43D0E900142143D0E902452C437E
:1004B0002143046921434469214384692143114351
:1004C000196000214163012242770177084630BD5F
:1004D000012030BDF8FFFDBF0000024070B50446AA
:1004E00090F82000002501280CD0012084F820007D
:1004F00094F821600020012E06D084F82000022507
:10050000284670BD022070BD022684F82160A063D9
:100510002068066826F0010606602046FFF780FE88
:10052000E06A00282068016802D041F00E0106E070
:1005300021F0040101602068016841F00A010160B6
:100540002068016841F001010160D9E770B50446F7
:1005500000F0FEF80546601C02D004480078044410
:1005600000F0F6F8401BA042FAD370BD0400002052
:100570002DE9F84FDFF8B891002409F1040A0AF1D7
:10058000040B23460F270BF1040EC9E00125A540FB
:100590002A40AA427DD1674ED1F804C0ACEB0608D0
:1005A000B44532D014DCBCF1030F3AD009DCBCF105
:1005B000000F2AD0BCF1010F1CD0BCF1020F31D1C9
:1005C0001DE0BCF1110F17D0BCF1120F2AD119E0B8
:1005D000B8F5881F19D006DCB8F5803F15D0B8F5FE
:1005E000801F1FD111E0B8F5001F0ED0B8F5041F11
:1005F00018D10AE0CB6815E0CB681B1D12E0CB6870
:1006000008330FE0CB680C330CE08B682BB1012B67
:100610004FF0080303D0456104E0042302E00561C4
:1006200000E00023FF2A01D8064601E000F104069D
:100630004FEA840501D9A5F12005D6F8008007FA14
:1006400005FC28EA0C0803FA05F548EA0508C6F88F
:1006500000804D68ED0062D5374DAE6946F0010669
:10066000AE61AD6924F0030605F001050095334D38
:1006700006EB050CDCF80850A607360F07FA06F85B
:1006800025EA0805DFF8B880404503D14FF000089F
:1006900017E044E0DFF8AC80404502D14FF001089C
:1006A0000FE0DFF8A480404502D14FF0020808E0D7
:1006B000DFF89880404502D14FF0030801E04FF089
:1006C000040808FA06F848EA0508CCF808804D68DE
:1006D000D9F80060ED034D4601D5164300E096437E
:1006E0002E604D68DAF80060AD03554601D516431B
:1006F00000E096432E604D68DBF80060ED025D4639
:1007000001D5164300E096432E604D68DEF8006088
:10071000AD02754601D5164300E096432E60641C79
:100720000D682A46E5407FF431AFBDE8F88F000040
:1007300000040140000011100010024000000140C0
:1007400000080140000C014000100140001401406D
:10075000014880687047000004000020024881685A
:10076000027811448160704704000020074810B5EA
:10077000016841F010010160032000F075F80020CD
:1007800000F006F800F024F8002010BD0020024020
:1007900070B50D4D04464FF47A712878B1FBF0F036
:1007A0000A490968B1FBF0F000F0ECFA48B9102CE6
:1007B00007D200222146501E00F036F800206C605F
:1007C00070BD012070BD000004000020100000205A
:1007D0000C4808B5816941F001018161816901F02E
:1007E00001010091C16941F08051C161C06900F00F
:1007F000805000900448416821F0E06141F00071B0
:10080000416008BD0010024000000140002809DBE3
:1008100000F01F02012191404009800000F1E0201A
:10082000C0F8001170470000F0B40E4B1B680C4676
:10083000C3F30223C3F10705042D00D90425191DB4
:10084000072901D2002300E0DB1E012606FA05F18C
:10085000491E214099409E40761E16403143F0BC0F
:1008600000F08CBF0CED00E0064900F007020868BC
:100870004FF6FF03184040EA0220034A1043086085
:10088000704700000CED00E00000FA052DE9F0478C
:100890000F46050061D0434E306800F00700B842B3
:1008A00009D2306820F0070038433060306800F02B
:1008B0000700B84251D128683B4C810712D5400748
:1008C00003D5606840F4E06060602878000703D5D5
:1008D000606840F4605060606068A96820F0F000D3
:1008E000084360602878C00728D06868012810D0C5
:1008F0002168022810D0890700292EDA616821F0CA
:10090000030101436160FFF723FF804641F288390C
:100910000DE021688903EFE78901EDE7FFF718FF94
:10092000A0EB0801494502D90320BDE8F0876068C3
:10093000696800F00C00B0EB810FEFD1306800F077
:100940000700B8420BD9306820F007003843306008
:10095000306800F00700B84201D00120E5E72878B0
:10096000400705D56068E96820F4E06008436060EE
:100970002878000706D56068296920F4605040EAAD
:10098000C100606000F038F86168084AC1F30311E3
:10099000515CC8400649086006480068FFF7F8FE49
:1009A0000020C2E700200240001002405822000848
:1009B000100000200800002004480549006849682C
:1009C000044AC1F30221515CC84070471000002066
:1009D0000010024068220008044805490068496880
:1009E000044AC1F3C221515CC84070471000002086
:1009F000001002406822000812A185B00FC98DE8DE
:100A00000F0014A0144A006804905168134801F0C4
:100A10000C03042B10D0082B0ED1C1F38343C90360
:100A20001DF803000AD5516804AAC1F34041515C86
:100A30000A4A5043B0FBF1F005B0704708494843FB
:100A4000FAE7000002030405060708090A0B0C0D6B
:100A50000E0F1010010200000010024000127A0078
:100A600000093D002DE9F84F040070D02078C04DFA
:100A7000C00749D06868C0F38100012807D06868C2
:100A8000C0F38100022809D16868C00306D5286830
:100A9000800339D560680028E7D035E06068B0F59C
:100AA000803F0BD010B1B0F5A02F11D0286820F4F2
:100AB00080302860286820F4802002E0286840F414
:100AC00080302860606890B1FFF742FE06460AE079
:100AD000286840F480202860F0E700BFFFF738FE68
:100AE000801B642873D828688003F7D50CE0FFF7D3
:100AF0002FFE064605E000BFFFF72AFE801B642894
:100B0000F0D828688003F7D420789A4E80074FF0F9
:100B100001094FF0000839D5686810F00C0F07D0B4
:100B20006868C0F38100022809D16868C00306D450
:100B30002868800714D52069012808D110E02069B1
:100B4000B0B1C6F80090FFF703FE074605E00AE1E2
:100B5000FFF7FEFDC01B0228C4D828688007F7D520
:100B60002868616920F0F80040EAC10028600DE0C3
:100B7000C6F80080FFF7ECFD074604E0FFF7E8FD4C
:100B8000C01B022823D828688007F7D420780007E4
:100B90002CD57948A169D9B1C0F80090FFF7D8FDEC
:100BA000074604E0FFF7D4FDC01B02280FD8686A8F
:100BB0008007F7D571484FF4FA510068B0FBF1F0A7
:100BC000009000BF0098411E0091FAD20EE080E034
:100BD000C0F80080FFF7BCFD074604E0FFF7B8FD52
:100BE000C01B022875D8686A8007F7D420784007B0
:100BF00060D5E8690027C00008D4E86940F080505B
:100C0000E861E869012700F0805000905C480168C5
:100C1000C90513D40168834641F480710160FFF770
:100C200097FD824606E000BFFFF792FDA0EB0A00A9
:100C300064284ED8DBF80000C005F5D5E06801282F
:100C40000AD008B1052813D0286A20F001002862D4
:100C5000286A20F0040002E0286A40F001002862BF
:100C6000E06841F2883B98B1FFF772FD82460BE0E5
:100C7000286A40F004002862EEE700BFFFF768FD35
:100C8000A0EB0A0159455AD8286A8007F6D50CE02E
:100C9000FFF75EFD824605E0FFF75AFDA0EB0A0173
:100CA00059454CD8286A8007F6D41FB1E86920F06E
:100CB0008050E861E06988B36968C1F38101022965
:100CC00044D00228C6F8608004D0FFF741FD0446F6
:100CD00038E034E0FFF73CFD074604E0FFF738FD5D
:100CE000C01B02282BD828688001F7D4206AB0F5F1
:100CF000803F05D16868A16820F40030084368602F
:100D0000D4E908010843696821F474110843686054
:100D1000C6F86090FFF71CFD044606E025E000BF22
:100D2000FFF716FD001B022809D828688001F7D5B7
:100D30001BE000BFFFF70CFD001B022802D90320B7
:100D4000BDE8F88F28688001F4D40EE00128F7D0C0
:100D50006868226A00F48031914204D1616A00F42B
:100D60007010884201D00120EAE70020E8E7000087
:100D70000010024000004242800442421000002065
:100D80000070004010B5401EB0F1807F01D30120FB
:100D900010BD4FF0E02460610F21601700F0EEFC01
:100DA0000020A06107202061002010BD704710B511
:100DB00004460068416994F83D20C1F3C011212A1E
:100DC0000BD151B1416921F080014161606B08B1E3
:100DD000FFF73DFA204600F064FB2068416994F873
:100DE0003E20C1F38011222A0BD151B1416921F07B
:100DF00040014161A06B08B1FFF729FA204600F0DD
:100E000038FB002010BD7047F8B502680446106832
:100E1000D168536910F00F0F4FF0000553D003F065
:100E2000010601F4907737435FD0C20705D0CA05A9
:100E300003D5226C42F001022264420705D5DA078D
:100E400003D0226C42F002022264820705D5DA0741
:100E500003D0226C42F004022264020707D501F09D
:100E60002002324303D0226C42F008022264226C3A
:100E7000002A34D0800604D5880602D5204600F02A
:100E800019FB20684069216CC0F38010090700D469
:100E900030B3204600F0EDFA2068416949061BD5C1
:100EA000416921F040014161A06BA8B158494163FB
:100EB000A06BFFF7EFF9002811D0A06B416B01B0D8
:100EC000BDE8F040084783060FD58B060DD52046B8
:100ED000BDE8F84000F0EEBA2046FFF794FFF8BDF9
:100EE0002046FFF790FF2564F8BD266B2023012ED6
:100EF00052D1C60650D5CE064ED510685068009027
:100F0000506940062AD5A16B086840680004000CAF
:100F1000EAD0A68D8642E7D9E0858869202818D0D6
:100F2000D06820F48070D0602068416921F0010110
:100F300041612068416921F04001416184F83E30FF
:100F400025632068C16821F01001C160A06BFFF724
:100F50007EF9A08DE18D401A81B219E0A08DE18D5E
:100F6000401A81B2E08D0028BED00029BCD0D068E4
:100F700020F49070D0602068426922F00102426142
:100F800084F83E3025632068C26822F01002C260F7
:100F90002046FFF70BFFF8BD05062BD50D0629D51A
:100FA00094F83D002128F6D1A068B0F5805F01D10A
:100FB0002069B0B1206A411C216221680078486034
:100FC000E08C401E0004000CE084E4D12068C1687D
:100FD00021F08001C1602068C16841F04001C1601A
:100FE000F8BD206A0088C0F308005060206A801CA9
:100FF0002062E5E74006F3D54806F1D5D1682046E2
:1010000021F04001D16084F83D3000F01CF9F8BDBA
:10101000A513000870B5040004D094F83D00002525
:1010200010B106E0012070BD84F83C50204600F06D
:1010300023F8242084F83D002068C16821F4005181
:10104000C160204600F092FA2068016921F49041C5
:1010500001612068416921F02A0141612068C1686D
:1010600041F40051C1602564202084F83D0084F8DB
:101070003E00002070BD0000F0B585B00024009453
:101080000194029403940646304F036830490220CD
:101090000322304DBB4234D18B6943F480438B61D2
:1010A0008B6903F4804304938B6943F004038B61E1
:1010B0008969039201F0040104910102CDE9001055
:1010C00069462846FFF754FA2815CDE90004694619
:1010D00028460294FFF74CFA204D1F48C5E900044A
:1010E0008020C5E902402C616C61AC612846EC614E
:1010F000FFF7C6F908B1FFF7A9F8B5636E6205B04E
:10110000F0BD174EB342FAD1CB6943F40033CB6143
:10111000CB6903F4003304938B6943F004038B61C0
:101120008969039201F0040104910421CDE90010C2
:1011300069462846FFF71CFA0820CDE900046946F5
:1011400028460294FFF714FAD9E70000003801405E
:10115000001002400008014058000240A801002091
:101160000044004090F83E30202B0ED159B152B1CE
:1011700090F83C30012B08D0012380F83C3000234C
:10118000036300F04FBA0120704702207047704798
:10119000704700002DE9F843044690F83D001F46D3
:1011A00016460D4620284CD1C5B1BEB194F83C007E
:1011B000012846D0012084F83C004FF00008C4F814
:1011C0004080212084F83D00FFF7C2FAA6848146C2
:1011D000E684A068B0F5805F03D004E00120BDE89C
:1011E000F883206928B12E465FF0000584F83C8022
:1011F0000EE00026FAE78021204600F04BFAA0B965
:10120000AEB116F8010B21684860E08C401EE08406
:10121000E08C4B464FF0000200970028EBD14FF0D6
:101220004001204600F036FA30B10320D7E735F808
:10123000020BC0F30800E6E7202084F83D00002000
:10124000CDE70220CBE77047FEE7000007490968B9
:10125000C9070AD0054980390968C90705D04FF088
:1012600060410A68002AFCD008707047800E00E0D8
:10127000094808B5416941F0010141614069002216
:1012800000F00100009011460F20FFF7CDFABDE8F5
:1012900008400F20FFF7BABA001002400D4808B509
:1012A000816941F020018161816901F02001009193
:1012B000816941F004018161816901F004010091BB
:1012C000816941F008018161806900F008000090A7
:1012D00008BD0000001002400C4810B50A4901602A
:1012E0004FF4E1314160002181600C22C160C0E90E
:1012F00004128161C161FFF78DFE002803D0BDE8B3
:101300001040FEF7A3BF10BD0038014020010020AF
:101310000C4810B50A4901604FF4E13141600021E9
:1013200081600C22C160C0E904128161C161FFF7D4
:1013300071FE002803D0BDE81040FEF787BF10BD46
:101340000044004064010020FEE77047704770478A
:10135000FFF704BA30B58FB028216846FEF7FBFED0
:1013600014210AA8FEF7F7FE01210804CDE90010B8
:101370000024029402250491CDE907504FF4E010B7
:1013800009906846FFF76EFB0F20CDE90A05680259
:10139000CDE90C4002210AA80E94FFF777FA0FB0AE
:1013A00030BD704710B5406A0021C185C184FFF788
:1013B0002AFD10BD70B5446A2068406994F83D105C
:1013C000C0F3C0100025212904D118B1E5842046BE
:1013D00000F067F82068406994F83E10C0F3801070
:1013E000222904D118B1E585204600F042F8206C8E
:1013F00040F0100020642046FFF705FD70BD10B5D9
:101400000146406A0968096889061BD40021C18524
:101410000168CA6822F48072CA6001684A6922F0D1
:1014200001024A6101684A6922F040024A612021B2
:1014300080F83E10016B012904D10168CA6822F0CE
:101440001002CA60016B012902D0FFF7A0FE10BD97
:10145000818DFFF7ABFC10BD10B5406A016B01290F
:1014600002D0FFF795FE10BD818D4908FFF79EFC65
:1014700010BD0168CA6822F49072CA6001684A69A6
:1014800022F001024A61016B012904D10168CA6896
:1014900022F01002CA60202180F83E100021016372
:1014A00070470168CA6822F0C002CA60202180F833
:1014B0003D10704708B590F83E10222901D0022057
:1014C00008BD82684FF480539A4201D1016921B16D
:1014D000816A9A421BD04AB10AE00268816A526866
:1014E000C2F308020A80816A891C08E0026972B1AD
:1014F0000268526802F07F020A70816A491C8162A8
:10150000C18D491E0904090CC18503D019E0026888
:101510005268F1E70168CA6822F02002CA600168D7
:10152000CA6822F48072CA6001684A6922F0010226
:101530004A61202180F83E10016B012903D0FFF79A
:1015400026FE002008BD002101630168CA6822F060
:101550001002CA6001680A68D20602D50A684968A2
:101560000091818DFFF722FCEBE7000070B5044687
:1015700000680169E26821F4405111430161216969
:10158000A0680843616908432168CA6841F20C6396
:101590009A430243CA6020684169A26921F44071FC
:1015A000114341611E492068884202D1FFF714FAB5
:1015B00001E0FFF701FA00EBC00101EB00126068E7
:1015C00064218000B2FBF0F3B3FBF1F36FF0180677
:1015D0007343B2FBF0F5B2FBF0F605EB8305322363
:1015E00003EB0515B5FBF1F5B6FBF1F605F0F005DB
:1015F00005EB0615B2FBF0F6B2FBF0F0B0FBF1F034
:101600006FF01802504306EB800003EB0010B0FBB4
:10161000F1F0216800F00F002844886070BD0000E0
:101620000038014038B581628285002513460446A2
:101630000564222084F83E00A26B13489062A26BDE
:101640001248D062A26B12481063A06B0A46456331
:101650002168A06B091DFEF741FF20680168416801
:10166000009184F83C50C16841F48071C1602068E9
:10167000416941F0010141612068416941F0400147
:101680004161002038BD0000FF1300085914000814
:10169000B51300082DE9F041984617460E4604465A
:1016A000069D1DE0681C1BD02DB1FFF751F8A0EB83
:1016B0000800A84214D92068C16821F4D071C16023
:1016C0002068416921F001014161202084F83D003A
:1016D00084F83E00002084F83C000320BDE8F0813F
:1016E0002068006836EA000004D00020B842D9D053
:1016F0000020F3E70120F9E710B5044800F00AF8EC
:10170000BDE810400148FFF77FBB0000200100202A
:10171000FEE7000038B500680168C943C90619D45E
:101720000D4C21680A684968009100682046FFF75F
:101730003EFBA06B00684068A4F58271C0F1FF0019
:101740004880012001F8040B2046BDE83840FF2204
:10175000FFF708BD38BD0000200100200FB4054B85
:1017600010B503A9044A029800F028F810BC5DF8EF
:1017700014FB0000651C0008140000200907090E76
:10178000002804DB00F1E02080F80014704700F02E
:101790000F0000F1E02080F8141D704702E008C837
:1017A000121F08C1002AFAD170477047002001E0DB
:1017B00001C1121F002AFBD1704700002DE9FF4F25
:1017C0008DB00F460546002606E025280BD0DDE942
:1017D0000F1290476D1C761C28780028F5D111B0A7
:1017E0003046BDE8F08F0024A246A1460122E94917
:1017F00000E0044315F8013F203B02FA03F00842E1
:10180000F7D128782A2810D06FF02F022878A0F17D
:101810003001092914D80AEB8A0102EB410144F096
:10182000020400EB010A6D1CF0E701CF5FEA000A39
:1018300003D544F40054CAF1000A44F002046D1CBC
:1018400028782E2817D115F8010F44F004042A280F
:101850000ED06FF02F022878A0F1300109290AD8A4
:1018600009EB890102EB410100EB01096D1CF2E774
:1018700057F8049B6D1C28786C280FD006DC4C2888
:1018800017D068280DD06A2814D104E0742810D02D
:101890007A280FD10DE044F400140AE044F48014D7
:1018A00001E044F440146978814202D104F58014C7
:1018B0006D1C6D1C28786E281ED00CDC632830D07F
:1018C00004DC00288BD0582811D19FE0642867D011
:1018D00069280CD164E073282DD004DC6F2872D005
:1018E000702804D194E075286ED078286DD0DDE999
:1018F0000F129047761C4BE1C4F30250022806D029
:10190000032809D0042801CF09D0066040E101CFA7
:10191000F117C0E900613BE101CF068038E10670B4
:1019200036E117F8040B8DF8000000208DF8010057
:10193000EB46012003E057F804BB4FF0FF3061078E
:101940004FF0000102D40DE008F10101884649453D
:101950000FDA8045F8DB1BF808100029F4D108E005
:1019600008F1010188468142FADB1BF808100029C2
:10197000F6D1DDE90F23AAEB08008146214600F0ED
:1019800031F9304400EB080604E0DDE90F121BF8E2
:10199000010B9047B8F10108F7D221464846F2E022
:1019A0000A21C4F302524FF0000B0891022A04D01E
:1019B00001CFC117032A09D00AE0FF1D27F007074E
:1019C000F7E8020108E02CE01EE01FE000B2C117BA
:1019D000042A01D140B2C117021E71F1000206DAD9
:1019E0000023D0EB030063EB01012D2202E022056E
:1019F00004D52B228DF82420012203E0E20701D038
:101A00002022F7E7904653E00A210BE0102109E07D
:101A100010214FF0000B44F004044FF00809089126
:101A200003E008214FF0000B0891C4F30252022A90
:101A300004D001CF0021032A06D006E0FF1D27F0C5
:101A40000707F7E8020103E080B2042A00D1C0B220
:101A50004FF0000822072BD52A78702A07D0DDF82E
:101A600020C08CF0100C5CEA0B0C05D00EE040227C
:101A70008DF82420012208E050EA010306D030232B
:101A80008DF824308DF8252002229046089B83F0A3
:101A9000080353EA0B030BD150EA010201D162079C
:101AA00006D530228DF824204FF00108A9F1010954
:101AB0002A78582A04D038A20B9208AA0A920BE07E
:101AC0003AA2F9E75B46089AFEF750FB0B9B9B5C3A
:101AD0000A9A521E0A92137050EA0102F2D10A9831
:101AE000ADEB000000F1200B600702D524F4803438
:101AF00001E04FF00109D94502DDA9EB0B0000E040
:101B0000002000EB0B0141440890AAEB010AE0031E
:101B100006D4DDE90F232146504600F063F8064461
:101B20004FF0000908E009A911F80900DDE90F12DA
:101B3000904709F10109761CC145F4DBE0030CD59F
:101B4000DDE90F232146504600F04CF8064404E03E
:101B5000DDE90F1230209047761C0899481E089046
:101B60000029F5DC08E00A980A990078491C0A91D6
:101B7000DDE90F129047761CBBF10001ABF1010BC0
:101B8000F1DC21465046DDE90F2300F019F8064448
:101B90006D1C21E6092801003031323334353637E7
:101BA00038396162636465660000000030313233A9
:101BB0003435363738394142434445460000000049
:101BC0002DE9F041044600251E461746880404D43A
:101BD00005E039462020B0476D1C641EF9D5284623
:101BE000BDE8F0812DE9F041044600251E469046EF
:101BF000C80301D5302700E02027880404D505E07C
:101C000041463846B0476D1C641EF9D52846BDE8EC
:101C1000F081000070B50CA0FFF7A0FD0C4C002077
:101C20000C4D607007E0284401790BA0FFF796FD8A
:101C30006078401C60706988C0B28142F3D8BDE80A
:101C4000704007A0FFF78ABD72657370203A2000CC
:101C5000000000201C000020253032580000000049
:101C60000A000000054A914202D0054A914201D182
:101C7000FFF7ECBA4FF0FF3070470000140000206F
:101C80001800002010B50A48FFF791F80848806B4B
:101C9000006840680749C0B2FF2288700649C0F159
:101CA000FF004880BDE810400148091DFFF75ABAFF
:101CB00020010020000000201C000020FEF756FD3F
:101CC000FFF748FBFFF7EAFAFFF7D2FAFFF704FB4A
:101CD000FFF71EFB002211462520FEF7A5FD25205B
:101CE000FEF794FDAE4CFF22211DAE48FFF73AFAF5
:101CF000AD4D4FF002084FF00B0901264FF4FA7773
:101D00002078C00773D0002020702878012816D0D2
:101D100002282BD0032836D0042841D005284CD0E7
:101D2000062857D0072863D0082873D009286DD01B
:101D30000A286CD00B286BD00C286AD0ADE0E07A72
:101D40004F2802D1207B4B2803D0A0794F2802D006
:101D500004E096A005E0E0794B2801D097A09AE036
:101D600099A0FFF7FBFC85F8008096E0A07B302867
:101D700002D1207C312801D098A08CE09CA0FFF7F4
:101D8000EDFC03207EE0A0794F2802D1E0794B28BA
:101D900001D09DA065E0A3A0FFF7E0FC042071E066
:101DA000A0794F2802D1E0794B2801D0A3A058E0B8
:101DB000A7A0FFF7D3FC052064E0A0794F2802D14B
:101DC000E0794B2801D0A6A04BE0AAA0FFF7C6FC03
:101DD000062057E0A0794F2802D1E0794B2801D0A6
:101DE000A8A058E0ABA0FFF7B9FC07204AE05DE0EF
:101DF000A0794F2802D1E0794B2801D0A9A04AE070
:101E0000AEA0FFF7ABFC08203CE003E011E022E0CD
:101E10002CE039E0FFF7FEFEA0794F2802D1E079EF
:101E20004B2801D0AAA036E0AEA0FFF797FC09200E
:101E300028E0FFF7EFFEE07E322805D1207F302832
:101E400002D1607F302801D0ABA00AE0AFA0FFF73D
:101E500085FC0A2016E0607D4C2801D0B0A01AE075
:101E6000B4A0FFF77BFC85F8009016E0A0794F281E
:101E700002D1E0794B2801D0B2A00CE0B5A0FFF769
:101E80006DFC0C20287008E0A0794F2802D1E07981
:101E90004B2806D0B3A0FFF761FC2078C00705D01F
:101EA00074E0B5A0FFF75AFC2E70F6E728780128F9
:101EB00005D132230622B4A13A48FFF76BF92878FE
:101EC000022805D132230B22B1A13648FFF762F96F
:101ED0002878032805D132231F22B0A13148FFF70B
:101EE00059F92878042805D132231A22B3A12D48A4
:101EF000FFF750F92878052805D132230E22B6A124
:101F00002848FFF747F92878062805D132230D2203
:101F1000B5A12448FFF73EF92878072805D13223D8
:101F20001522B5A11F48FFF735F92878082805D1F3
:101F300032235322B6491B48FFF72CF92878092889
:101F400009D132231122B3A11648FFF723F94FF428
:101F5000FA60FEF7FBFA28780A2805D132230D2211
:101F6000B1A11048FFF716F928780B2805D13223C4
:101F70000D22B1A10B48FFF70DF928780C2805D1E7
:101F800032230E22B0A10748FFF704F92670384625
:101F9000FEF7DCFAFFF776FE3846FEF7D7FAAFE633
:101FA0001C00002020010020000000206563686FF5
:101FB000206973206F66660A000000006563686F21
:101FC000206572726F720A006563686F20616C72BF
:101FD00065616479206F66660A0000007265676952
:101FE0007374726174696F6E206572726F720A0029
:101FF0007265676973746572656420746F206E65BD
:1020000074776F726B0A0000534150425220434F65
:102010004E545950452047505253206572726F728A
:102020000A000000534150425220434F4E54595031
:10203000452047505253206F6B0A000053415042D5
:10204000522041504E206572726F720A00000000EB
:1020500053415042522041504E204F4B0A00000045
:10206000534150425220312C31206572726F720AF6
:1020700000000000534150425220312C31206F6B40
:102080000A00000048545450494E49542065727269
:102090006F720A0048545450494E4954206F6B0ADD
:1020A00000000000485454505041524120434944DC
:1020B0002031206572726F720A000000485454503B
:1020C00050415241204349442031206F6B0A0000A7
:1020D00048545450504152412055524C2065727220
:1020E0006F720A0048545450504152412055524C8E
:1020F000204F4B0A000000004854545041435449BB
:102100004F4E3D30206572726F720A004854545031
:10211000414354494F4E3D30204F4B0A00000000D0
:1021200041542B4854545052454144206572726FBB
:10213000720A000041542B485454505245414420E7
:102140006F6B0A00485454505445524D20657272CA
:102150006F720A00485454505445524D206F6B0A18
:102160000000000053415042523D302C3120657236
:10217000726F720A0000000053415042523D302CF1
:1021800031206F6B0A000000415445300D00000003
:1021900041542B43475245473F0D000041542B53B8
:1021A000415042523D332C312C22434F4E54595012
:1021B00045222C2247505253220D000041542B53EC
:1021C000415042523D332C312C2241504E222C2280
:1021D000584F58220D00000041542B534150425299
:1021E0003D312C310D00000041542B4854545049CE
:1021F0004E49540D0000000041542B485454505097
:102200004152413D22434944222C310D000000003F
:102210007022000841542B48545450414354494FB4
:102220004E3D300D0000000041542B485454505294
:102230004541440D0000000041542B485454505473
:1022400045524D0D0000000041542B534150425265
:102250003D302C310D0000000000000000000000A7
:10226000010203040607080900000000010203043C
:1022700041542B48545450504152413D2255524CE8
:10228000222C223135392E36352E31322E3131394C
:102290002F677073747261636B65722F72656376FA
:1022A0005F646174612E7068703F6E616D653D4C56
:1022B00075636961266D6573736167653D4361751B
:1022C000220D0000E4220008000000201C00000095
:1022D0009C170008002300081C000020D405000003
:1022E000AC17000801000000010000001000000011
:1022F000000000000024F4000000000000000000C6
:04000005080000ED02
:00000001FF
